:100000000C9434000C9446000C9446000C9446006A
:100010000C9446000C9446000C9446000C94460048
:100020000C9446000C9446000C9446000C94460038
:100030000C9446000C9446000C9446000C94460028
:100040000C9446000C9446000C9448000C94460016
:100050000C9446000C9446000C9446000C94460008
:100060000C9446000C94460011241FBECFEFD8E03C
:10007000DEBFCDBF21E0A0E0B1E001C01D92A13004
:10008000B207E1F70E9472000C948C000C940000FF
:100090001F920F920FB60F9211242F933F934F93FD
:1000A0005F936F937F938F939F93AF93BF93EF93E0
:1000B000FF938091C60080930001809100010E940F
:1000C0007600FF91EF91BF91AF919F918F917F91BA
:1000D0006F915F914F913F912F910F900FBE0F90B5
:1000E0001F9018950E9479007894FFCF8093C600E6
:1000F00008951092C50087E68093C400E1ECF0E01B
:10010000808188618083A2ECB0E08C9186608C93C2
:0C0110008081806880830895F894FFCF00
:00000001FF
